:020000040800F2
:1000000000280020990D0008290D00082F0D000878
:10001000350D00083B0D0008410D000800000000F0
:10002000000000000000000000000000470D000874
:10003000530D0008000000005F0D00086B0D000864
:10004000E10D0008E10D0008E10D0008E10D0008D8
:10005000E10D0008E10D0008E10D0008E10D0008C8
:10006000E10D0008E10D0008E10D0008E10D0008B8
:10007000E10D0008E10D0008E10D0008E10D0008A8
:10008000E10D0008E10D0008E10D0008E10D000898
:10009000E10D0008E10D0008E10D0008E10D000888
:1000A000E10D0008E10D0008E10D0008E10D000878
:1000B000790D0008E10D000800000000E10D0008C6
:1000C000E10D00080000000000000000E10D000844
:1000D00000000000E10D0008E10D00080000000034
:1000E000E10D0008E10D0008E10D0008000000002E
:1000F0000000000000000000000000000000000000
:0C01000000000000000000005FF808F1A3
:10010C0010B5054C237833B9044B13B10448AFF345
:10011C0000800123237010BD34000020000000007B
:10012C00FC23000808B5034B1BB103490348AFF38C
:10013C00008008BD0000000038000020FC230008EF
:10014C0080B500AF01224FF47071054801F02EF913
:10015C0001227F21034801F029F900BF80BD00BFB7
:10016C0000080140000C014080B586B000AF7860FB
:10017C00144A07F1080307CA03C31A8000237B61E2
:10018C0018E001227B6902FA03F399B207F1080225
:10019C007B6813441B781A467B6942FA03F3DBB283
:1001AC0003F00103DBB21A46074801F0FFF87B6944
:1001BC0001337B617B69062BE3DD00BF00BF183781
:1001CC00BD4680BD14240008000C014080B582B0EF
:1001DC0000AF7860FFF7B4FF464B1A68464B1B68BC
:1001EC009A4202DB434B00221A607B68032B7BD8BC
:1001FC0001A252F823F000BF150200084D020008BE
:10020C0085020008BD020008002240213B4801F095
:10021C00CDF801228021394801F0C8F801224FF4B1
:10022C008071364801F0C2F801224FF40071334856
:10023C0001F0BCF8324B1B681846FFF795FF54E0F1
:10024C00002280212D4801F0B1F8012240212B48D9
:10025C0001F0ACF801224FF48071284801F0A6F8A7
:10026C0001224FF40071254801F0A0F8244B5B6883
:10027C001846FFF779FF38E000224FF480711F48D1
:10028C0001F094F8012240211C4801F08FF8012262
:10029C0080211A4801F08AF801224FF400711748A6
:1002AC0001F084F8164B9B681846FFF75DFF1CE0C5
:1002BC0000224FF40071114801F078F8012240211E
:1002CC000E4801F073F8012280210C4801F06EF801
:1002DC0001224FF48071094801F068F8084BDB6883
:1002EC001846FFF741FF00E000BF00BF0837BD46CE
:1002FC0080BD00BF5000002000000020000801401D
:10030C000400002080B400AF294B1B68092B07DCCC
:10031C00284B00221A60264B1B68264A53601BE0B0
:10032C00234B1968244B83FB01239A10CB17D21A49
:10033C0013469B0013445B00CA1A1E4B5A601C4B9D
:10034C001A681C4B5B68D31A1B4A82FB031292106F
:10035C00DB17D31A174A1360184B1B68092B07DCE1
:10036C00144B00229A60154B1B68124AD3601BE099
:10037C00124B1968104B83FB01239A10CB17D21A1E
:10038C0013469B0013445B00CA1A0A4BDA600B4BF2
:10039C001A68084BDB68D31A074A82FB03129210C7
:1003AC00DB17D31A034A936000BFBD4680BC70476D
:1003BC001400002004000020676666661800002008
:1003CC0080B485B000AF78600023FB600BE0FB6865
:1003DC007A6813441978094AFB6813440A461A7060
:1003EC00FB680133FB60064B1B68FA689A42EEDB34
:1003FC0000BF00BF1437BD4680BC70476C000020A6
:10040C002000002080B58CB000AF78600023FB6228
:10041C0026E0384A7B6813441B7803F00103002B59
:10042C0008D0FB6A9B0007F130021344002243F80A
:10043C00242C07E0FB6A9B0007F1300213440122D5
:10044C0043F8242C2B4A7B6813441B785B08D9B2E5
:10045C00284A7B6813440A461A70FB6A0133FB6214
:10046C00254B1B68FA6A9A42D3DBFB68DBB21A464F
:10047C004FF48071214800F099FF3B69DBB21A46BA
:10048C004FF400711D4800F091FF7B69DBB21A46F6
:10049C004FF48061194800F089FFBB69DBB21A4642
:1004AC004FF40061154800F081FFFB69DBB21A467E
:1004BC004FF48051114800F079FF3B6ADBB21A46C9
:1004CC004FF400510D4800F071FF7B6ADBB21A4605
:1004DC004FF48041094800F069FFBB6ADBB21A4651
:1004EC004FF40041054800F061FF00BF3037BD46B6
:1004FC0080BD00BF6C00002020000020000C0140DB
:10050C0080B582B000AF78607B68072B00F2A481C5
:10051C0001A252F823F000BF45050008A905000808
:10052C000D06000871060008D506000839070008FA
:10053C009D0700080108000800220421C84800F0AB
:10054C0035FF01220821C64800F030FF01224FF48C
:10055C008061C34800F02AFF01224FF40061C048BB
:10056C0000F024FF01224FF48051BD4800F01EFF23
:10057C0001224FF40051BA4800F018FF01224FF449
:10058C008041B74800F012FF01224FF40041B448FB
:10059C0000F00CFF7868FFF735FF5DE101220421C4
:1005AC00AF4800F003FF00220821AD4800F0FEFE2A
:1005BC0001224FF48061AA4800F0F8FE01224FF4AA
:1005CC000061A74800F0F2FE01224FF48051A448CC
:1005DC0000F0ECFE01224FF40051A14800F0E6FEC1
:1005EC0001224FF480419E4800F0E0FE01224FF4BE
:1005FC0000419B4800F0DAFE7868FFF703FF2BE11F
:10060C0001220421964800F0D1FE012208219448D1
:10061C0000F0CCFE00224FF48061914800F0C6FE41
:10062C0001224FF400618E4800F0C0FE01224FF40D
:10063C0080518B4800F0BAFE01224FF400518848DB
:10064C0000F0B4FE01224FF48041854800F0AEFE6C
:10065C0001224FF40041824800F0A8FE7868FFF7B1
:10066C00D1FEF9E0012204217D4800F09FFE012219
:10067C0008217B4800F09AFE01224FF480617848F3
:10068C0000F094FE00224FF40061754800F08EFEDD
:10069C0001224FF48051724800F088FE01224FF481
:1006AC0000516F4800F082FE01224FF480416C48EB
:1006BC0000F07CFE01224FF40041694800F076FE08
:1006CC007868FFF79FFEC7E001220421644800F020
:1006DC006DFE01220821624800F068FE01224FF4F1
:1006EC0080615F4800F062FE01224FF400615C48BB
:1006FC0000F05CFE00224FF48051594800F056FE89
:10070C0001224FF40051564800F050FE01224FF4E4
:10071C008041534800F04AFE01224FF400415048FA
:10072C0000F044FE7868FFF76DFE95E0012204218D
:10073C004B4800F03BFE01220821494800F036FEF0
:10074C0001224FF48061464800F030FE01224FF444
:10075C000061434800F02AFE01224FF480514048CA
:10076C0000F024FE00224FF400513D4800F01EFE24
:10077C0001224FF480413A4800F018FE01224FF458
:10078C000041374800F012FE7868FFF73BFE63E04B
:10079C0001220421324800F009FE012208213048D0
:1007AC0000F004FE01224FF480612D4800F0FEFDA4
:1007BC0001224FF400612A4800F0F8FD01224FF4A9
:1007CC008051274800F0F2FD01224FF400512448DB
:1007DC0000F0ECFD00224FF48041214800F0E6FDD2
:1007EC0001224FF400411E4800F0E0FD7868FFF74D
:1007FC0009FE31E001220421194800F0D7FD012245
:10080C000821174800F0D2FD01224FF480611448F2
:10081C0000F0CCFD01224FF40061114800F0C6FD40
:10082C0001224FF480510E4800F0C0FD01224FF41C
:10083C0000510B4800F0BAFD01224FF480410848EA
:10084C0000F0B4FD00224FF40041054800F0AEFD6D
:10085C007868FFF7D7FD00BF00BF0837BD4680BDE5
:10086C000008014080B582B000AF78607868FFF76F
:10087C00A7FD094B1B685A1E07490A601846FFF76B
:10088C003FFE054B1B68002B02DA034B07221A6054
:10089C0000BF0837BD4680BD2400002080B582B063
:1008AC0000AF00F099FA00F077F800F0FDF800F0D6
:1008BC00AFF82F4801F0D8F9642000F05BF919204B
:1008CC0000F06CF90A2000F07DF92A4A3B4692E8C8
:1008DC00030083E80300284B1B68012B2CD16420F8
:1008EC0000F048F93021254800F078FD244B1B68B6
:1008FC000133234A1360224B1B683B2B07DD204B33
:10090C0000221A601F4B1B6801331E4A13601D4BDB
:10091C001B683B2B07DD1B4B00221A601A4B1B6814
:10092C000133194A1360184B1B68172B02DD164B49
:10093C0000221A60FFF7E6FC144B1B68012B0AD14E
:10094C00192000F02BF9124B1B685A1C10490A6035
:10095C001846FFF73BFC0F4B1B68012BBBD1032048
:10096C0000F030F93B461846FFF77CFFB3E700BFB9
:10097C0074000020202400085800002000080140CA
:10098C001C00002018000020140000206000002033
:10099C00500000206800002080B590B000AF07F137
:1009AC00180328220021184601F01AFD3B1D0022D5
:1009BC001A605A609A60DA601A610223BB610123E3
:1009CC00BB621023FB6200237B6307F118031846FC
:1009DC0000F01EFD0346002B01D000F0C5F80F23DC
:1009EC007B600023BB600023FB6000233B61002382
:1009FC007B613B1D0021184600F08AFF0346002B4B
:100A0C0001D000F0B1F800BF4037BD4680BD0000FA
:100A1C0080B586B000AF07F1080300221A605A6057
:100A2C009A60DA603B4600221A605A601D4B4FF008
:100A3C0080421A601B4B41F63F725A60194B0022E0
:100A4C009A60184B0922DA60164B00221A61154B7A
:100A5C0000229A61134801F0B7F80346002B01D02D
:100A6C0000F082F84FF48053BB6007F1080319467D
:100A7C000C4801F04DFA0346002B01D000F074F83D
:100A8C0000233B6000237B603B461946054801F080
:100A9C0019FC0346002B01D000F066F800BF183794
:100AAC00BD4680BD7400002080B586B000AF07F154
:100ABC00080300221A605A609A60DA60224B9B6924
:100ACC00214A43F0040393611F4B9B6903F0040319
:100ADC007B607B681C4B9B691B4A43F0080393614A
:100AEC00194B9B6903F008033B603B6800224FF6EF
:100AFC00FC71164800F05AFC00224FF67F71144826
:100B0C0000F054FC4FF6FC73BB600123FB60002328
:100B1C003B6102237B6107F1080319460B4800F087
:100B2C00CBFA4FF67F73BB600123FB6000233B6164
:100B3C0002237B6107F108031946054800F0BCFA53
:100B4C0000BF1837BD4680BD0010024000080140B0
:100B5C00000C014080B582B000AF786000F046F820
:100B6C0000BF0837BD4680BD80B400AF72B600BF71
:100B7C00FEE7000080B483B000AF7860054A7B6864
:100B8C001360054B00221A6000BF0C37BD4680BCB9
:100B9C00704700BF540000205800002080B483B080
:100BAC0000AF7860054A7B681360054B00221A6021
:100BBC0000BF0C37BD4680BC704700BF5C000020F6
:100BCC006000002080B483B000AF7860054A7B6879
:100BDC001360054B00221A6000BF0C37BD4680BC69
:100BEC00704700BF640000206800002080B400AF94
:100BFC00194B1B68002B0BDD174B1B68013B164A6E
:100C0C001360154B1B68002B02DC144B01221A607D
:100C1C00134B1B68002B0BDD114B1B68013B104A5F
:100C2C0013600F4B1B68002B02DC0E4B01221A6069
:100C3C000D4B1B68002B0BDD0B4B1B68013B0A4A51
:100C4C001360094B1B68002B02DC084B01221A6055
:100C5C0000BFBD4680BC70475400002058000020E7
:100C6C005C00002060000020640000206800002070
:100C7C0080B485B000AF154B9B69144A43F0010357
:100C8C009361124B9B6903F00103BB60BB680F4B74
:100C9C00DB690E4A43F08053D3610C4BDB6903F0E4
:100CAC0080537B607B680A4B5B68FB60FB6823F0BE
:100CBC00E063FB60FB6843F08063FB60044AFB6805
:100CCC00536000BF1437BD4680BC70470010024013
:100CDC000000014080B584B000AF78607B681B6871
:100CEC00B3F1804F13D10C4BDB690B4A43F001037A
:100CFC00D361094BDB6903F00103FB60FB68002245
:100D0C0000211C2000F0A1F91C2000F0BAF900BF52
:100D1C001037BD4680BD00BF0010024080B400AF4C
:100D2C00FEE780B400AFFEE780B400AFFEE780B40E
:100D3C0000AFFEE780B400AFFEE780B400AF00BFA9
:100D4C00BD4680BC704780B400AF00BFBD4680BCC0
:100D5C00704780B400AF00BFBD4680BC704780B503
:100D6C0000AF00F07FF800BF80BD000080B500AF81
:100D7C00024800F0C5FF00BF80BD00BF740000201A
:100D8C0080B400AF00BFBD4680BC7047FFF7F8FFD2
:100D9C000B480C490C4A002302E0D458C4500433CD
:100DAC00C4188C42F9D3094A094C002301E01360A2
:100DBC000432A242FBD301F0EFFAFFF76FFD70474C
:100DCC0000000020340000205424000834000020CF
:100DDC00C0000020FEE7000080B500AF084B1B6888
:100DEC00074A43F010031360032000F023F90F208F
:100DFC0000F008F8FFF73CFF0023184680BD00BF49
:100E0C000020024080B582B000AF7860124B1A68A7
:100E1C00124B1B7819464FF47A73B3FBF1F3B2FB08
:100E2C00F3F3184600F03BF90346002B01D00123E5
:100E3C000EE07B680F2B0AD8002279684FF0FF3048
:100E4C0000F003F9064A7B681360002300E00123DD
:100E5C0018460837BD4680BD280000203000002011
:100E6C002C00002080B400AF054B1B781A46054BB4
:100E7C001B681344034A136000BFBD4680BC704717
:100E8C0030000020BC00002080B400AF024B1B6877
:100E9C001846BD4680BC7047BC00002080B485B0AD
:100EAC0000AF78607B6803F00703FB600C4BDB68DA
:100EBC00BB60BA684FF6FF031340BB60FB681A02B5
:100ECC00BB68134343F0BF6343F40033BB60044A75
:100EDC00BB68D36000BF1437BD4680BC704700BFF1
:100EEC0000ED00E080B400AF044BDB681B0A03F09C
:100EFC0007031846BD4680BC704700BF00ED00E0FC
:100F0C0080B483B000AF0346FB7197F90730002B18
:100F1C000BDBFB7903F01F02064997F907305B09DD
:100F2C00012000FA02F241F8232000BF0C37BD4625
:100F3C0080BC704700E100E080B483B000AF034692
:100F4C003960FB7197F90730002B0ADB3B68DAB28A
:100F5C000C4997F907301201D2B20B4483F80023E5
:100F6C000AE03B68DAB20849FB7903F00F03043B53
:100F7C001201D2B20B441A7600BF0C37BD4680BCAE
:100F8C00704700BF00E100E000ED00E080B489B0E4
:100F9C0000AFF860B9607A60FB6803F00703FB618F
:100FAC00FB69C3F10703042B28BF0423BB61FB6956
:100FBC000433062B02D9FB69033B00E000237B6161
:100FCC004FF0FF32BB6902FA03F3DA43BB681A40F5
:100FDC007B699A404FF0FF317B6901FA03F3D943E7
:100FEC007B680B40134318462437BD4680BC7047C2
:100FFC0080B582B000AF78607B68013BB3F1807F35
:10100C0001D301230FE00A4A7B68013B53600F2197
:10101C004FF0FF30FFF790FF054B00229A60044B16
:10102C0007221A60002318460837BD4680BD00BF52
:10103C0010E000E080B582B000AF78607868FFF710
:10104C002DFF00BF0837BD4680BD80B586B000AF10
:10105C000346B9607A60FB7300237B61FFF742FFA4
:10106C0078617A68B9687869FFF790FF024697F95A
:10107C000F3011461846FFF75FFF00BF1837BD460B
:10108C0080BD80B582B000AF0346FB7197F9073085
:10109C001846FFF735FF00BF0837BD4680BD80B549
:1010AC0082B000AF78607868FFF7A2FF034618465D
:1010BC000837BD4680BD000080B48BB000AF7860AF
:1010CC00396000237B6200233B6248E101227B6A8A
:1010DC0002FA03F3FB613B681B68FA691340BB61BE
:1010EC00BA69FB699A4240F037813B685B68A34A56
:1010FC0093425ED0A14A934275D8A14A934258D0EC
:10110C009F4A93426FD89F4A934252D09D4A934232
:10111C0069D89D4A93424CD09B4A934263D89B4AD0
:10112C00934246D0994A93425DD8122B2AD8122B5F
:10113C0059D801A252F823F0BF11000899110008E8
:10114C00AB110008ED110008F3110008F3110008B1
:10115C00F3110008F3110008F3110008F311000853
:10116C00F3110008F3110008F3110008F311000843
:10117C00F3110008F3110008F3110008A111000885
:10118C00B5110008824A934213D02CE03B68DB680F
:10119C003B6229E03B68DB6804333B6224E03B683C
:1011AC00DB6808333B621FE03B68DB680C333B6257
:1011BC001AE03B689B68002B02D104233B6213E0CE
:1011CC003B689B68012B05D108233B627B68FA695D
:1011DC001A6109E008233B627B68FA695A6103E0F3
:1011EC0000233B6200E000BFBB69FF2B01D87B688A
:1011FC0001E07B6804337B61BB69FF2B02D87B6AFF
:10120C009B0002E07B6A083B9B003B617B691A6890
:10121C000F213B6901FA03F3DB431A40396A3B693E
:10122C0001FA03F31A437B691A603B685B6803F0AD
:10123C008053002B00F09080564B9B69554A43F02D
:10124C0001039361534B9B6903F00103BB60BB68C3
:10125C00514A7B6A9B08023352F82330FB607B6A4D
:10126C0003F003039B000F2202FA03F3DB43FA683B
:10127C001340FB607B68494A93420DD07B68484A17
:10128C00934207D07B68474A934201D1022304E082
:10129C00032302E0012300E000237A6A02F0030238
:1012AC0092009340FA681343FB603B497B6A9B08AE
:1012BC000233FA6841F823203B685B6803F480131F
:1012CC00002B06D0384B9A683749BB6913438B60A7
:1012DC0006E0354B9A68BB69DB43334913408B609E
:1012EC003B685B6803F40013002B06D02E4BDA68C6
:1012FC002D49BB691343CB6006E02B4BDA68BB6905
:10130C00DB4329491340CB603B685B6803F4003333
:10131C00002B06D0244B5A682349BB6913434B60FE
:10132C0006E0214B5A68BB69DB431F4913404B60F5
:10133C003B685B6803F48033002B06D01A4B1A68A9
:10134C001949BB6913430B6006E0174B1A68BB695C
:10135C00DB43154913400B607B6A01337B623B68AE
:10136C001A687B6A22FA03F3002B7FF4AFAE00BF3E
:10137C0000BF2C37BD4680BC704700BF0000321048
:10138C00000031100000221000002110000012108B
:10139C000000111000100240000001400008014044
:1013AC00000C0140001001400004014080B483B0E7
:1013BC0000AF78600B467B8013467B707B78002BEC
:1013CC0003D07A887B681A6103E07B881A047B68F7
:1013DC001A6100BF0C37BD4680BC704780B485B025
:1013EC0000AF78600B467B807B68DB68FB607A889B
:1013FC00FB6813401A04FB68D9437B880B401A43E3
:10140C007B681A6100BF1437BD4680BC7047000072
:10141C0080B586B000AF78607B68002B01D10123CA
:10142C006CE27B681B6803F00103002B00F08780E3
:10143C00924B5B6803F00C03042B0CD08F4B5B6856
:10144C0003F00C03082B12D18C4B5B6803F4803334
:10145C00B3F5803F0BD1894B1B6803F40033002B91
:10146C006CD07B685B68002B68D1012346E27B68FB
:10147C005B68B3F5803F06D1804B1B687F4A43F411
:10148C00803313602EE07B685B68002B0CD17B4BA8
:10149C001B687A4A23F480331360784B1B68774AB5
:1014AC0023F4802313601DE07B685B68B3F5A02FE9
:1014BC000CD1724B1B68714A43F4802313606F4B41
:1014CC001B686E4A43F4803313600BE06B4B1B6854
:1014DC006A4A23F480331360684B1B68674A23F411
:1014EC00802313607B685B68002B13D0FFF7CCFC68
:1014FC00386108E0FFF7C8FC02463B69D31A642B3D
:10150C0001D90323FAE15D4B1B6803F40033002B74
:10151C00F0D014E0FFF7B8FC386108E0FFF7B4FC3A
:10152C0002463B69D31A642B01D90323E6E1534BE2
:10153C001B6803F40033002BF0D100E000BF7B6884
:10154C001B6803F00203002B63D04C4B5B6803F069
:10155C000C03002B0BD0494B5B6803F00C03082BDE
:10156C001CD1464B5B6803F48033002B16D1434BE4
:10157C001B6803F00203002B05D07B681B69012B51
:10158C0001D00123BAE13D4B1B6823F0F8027B68C4
:10159C005B69DB00394913430B603AE07B681B69DC
:1015AC00002B20D0364B01221A60FFF76DFC3861FE
:1015BC0008E0FFF769FC02463B69D31A022B01D9FC
:1015CC0003239BE12D4B1B6803F00203002BF0D08F
:1015DC002A4B1B6823F0F8027B685B69DB00274908
:1015EC0013430B6015E0264B00221A60FFF74CFCEE
:1015FC00386108E0FFF748FC02463B69D31A022B1E
:10160C0001D903237AE11D4B1B6803F00203002B65
:10161C00F0D17B681B6803F00803002B3AD07B6881
:10162C009B69002B19D0174B01221A60FFF72CFC79
:10163C00386108E0FFF728FC02463B69D31A022BFD
:10164C0001D903235AE10D4B5B6A03F00203002B13
:10165C00F0D0012000F09AFA1CE00A4B00221A602C
:10166C00FFF712FC38610FE0FFF70EFC02463B69F6
:10167C00D31A022B08D9032340E100BF001002400B
:10168C0000004242800442429E4B5B6A03F002031C
:10169C00002BE9D17B681B6803F00403002B00F0DE
:1016AC00A6800023FB75974BDB6903F08053002B5E
:1016BC000DD1944BDB69934A43F08053D361914B2A
:1016CC00DB6903F08053BB60BB680123FB758E4B59
:1016DC001B6803F48073002B18D18B4B1B688A4A50
:1016EC0043F480731360FFF7CFFB386108E0FFF71A
:1016FC00CBFB02463B69D31A642B01D90323FDE0D3
:10170C00814B1B6803F48073002BF0D07B68DB6883
:10171C00012B06D17B4B1B6A7A4A43F001031362FF
:10172C002DE07B68DB68002B0CD1764B1B6A754A6D
:10173C0023F001031362734B1B6A724A23F00403F8
:10174C0013621CE07B68DB68052B0CD16D4B1B6AAC
:10175C006C4A43F0040313626A4B1B6A694A43F0F8
:10176C00010313620BE0674B1B6A664A23F001030B
:10177C001362644B1B6A634A23F0040313627B6895
:10178C00DB68002B15D0FFF77FFB38610AE0FFF711
:10179C007BFB02463B69D31A41F28832934201D952
:1017AC000323ABE0574B1B6A03F00203002BEED074
:1017BC0014E0FFF769FB38610AE0FFF765FB0246AE
:1017CC003B69D31A41F28832934201D9032395E045
:1017DC004C4B1B6A03F00203002BEED1FB7D012B5B
:1017EC0005D1484BDB69474A23F08053D3617B68B2
:1017FC00DB69002B00F08180424B5B6803F00C032B
:10180C00082B61D07B68DB69022B46D13F4B002251
:10181C001A60FFF739FB386108E0FFF735FB024629
:10182C003B69D31A022B01D9032367E0354B1B68A4
:10183C0003F00073002BF0D17B681B6AB3F5803F7B
:10184C0008D1304B5B6823F400327B689B682D49D0
:10185C0013434B602B4B5B6823F474127B68196A3F
:10186C007B685B6A0B43274913434B60274B012270
:10187C001A60FFF709FB386108E0FFF705FB024629
:10188C003B69D31A022B01D9032337E01D4B1B688C
:10189C0003F00073002BF0D02FE01C4B00221A60D9
:1018AC00FFF7F2FA386108E0FFF7EEFA02463B69FF
:1018BC00D31A022B01D9032320E0124B1B6803F02F
:1018CC000073002BF0D118E07B68DB69012B01D190
:1018DC00012313E00B4B5B68FB60FB6803F4803265
:1018EC007B681B6A9A4206D1FB6803F470127B6812
:1018FC005B6A9A4201D0012300E000231846183796
:10190C00BD4680BD001002400070004060004242A5
:10191C0080B584B000AF786039607B68002B01D152
:10192C000123D0E06A4B1B6803F007033A689A4224
:10193C0010D9674B1B6823F0070265493B681343BA
:10194C000B60634B1B6803F007033A689A4201D0A3
:10195C000123B8E07B681B6803F00203002B20D046
:10196C007B681B6803F00403002B05D0594B5B68A4
:10197C00584A43F4E06353607B681B6803F0080328
:10198C00002B05D0534B5B68524A43F460535360B1
:10199C00504B5B6823F0F0027B689B684D49134306
:1019AC004B607B681B6803F00103002B40D07B6805
:1019BC005B68012B07D1474B1B6803F40033002BEA
:1019CC0015D101237FE07B685B68022B07D1414B6B
:1019DC001B6803F00073002B09D1012373E03D4B0E
:1019EC001B6803F00203002B01D101236BE0394B80
:1019FC005B6823F003027B685B68364913434B60DA
:101A0C00FFF742FAF8600AE0FFF73EFA0246FB687D
:101A1C00D31A41F28832934201D9032353E02D4B60
:101A2C005B6803F00C027B685B689B009A42EBD10D
:101A3C00274B1B6803F007033A689A4210D2244BD9
:101A4C001B6823F0070222493B6813430B60204BB1
:101A5C001B6803F007033A689A4201D0012332E075
:101A6C007B681B6803F00403002B08D0194B5B68E0
:101A7C0023F4E0627B68DB68164913434B607B6898
:101A8C001B6803F00803002B09D0124B5B6823F48E
:101A9C0060527B681B69DB000E4913434B6000F0FE
:101AAC0021F802460B4B5B681B0903F00F030A4934
:101ABC00CB5C22FA03F3094A1360094B1B681846E6
:101ACC00FFF7A0F9002318461037BD4680BD00BFB4
:101ADC0000200240001002402824000828000020AA
:101AEC002C00002080B487B000AF0023FB600023E3
:101AFC00BB6000237B6100237B6000233B611E4B9A
:101B0C005B68FB60FB6803F00C03042B02D0082B12
:101B1C0003D027E0194B3B6127E0FB689B0C03F0DB
:101B2C000F03174AD35C7B60FB6803F48033002BF4
:101B3C0010D0114B5B685B0C03F00103114AD35CB2
:101B4C00BB607B680D4A02FB03F2BB68B2FBF3F38C
:101B5C007B6104E07B680C4A02FB03F37B617B69CD
:101B6C003B6102E0054B3B6100BF3B6918461C37EB
:101B7C00BD4680BC704700BF0010024000127A00C6
:101B8C00382400084824000800093D0080B485B0C2
:101B9C0000AF78600A4B1B680A4AA2FB03235B0A5E
:101BAC007A6802FB03F3FB6000BFFB685A1EFA6005
:101BBC00002BF9D100BF00BF1437BD4680BC704765
:101BCC0028000020D34D621080B582B000AF786041
:101BDC007B68002B01D1012341E07B6893F83D30F9
:101BEC00DBB2002B06D17B68002283F83C2078689E
:101BFC00FFF770F87B68022283F83D207B681A6837
:101C0C007B6804331946104600F06EFA7B6801229B
:101C1C0083F846207B68012283F83E207B680122F2
:101C2C0083F83F207B68012283F840207B680122E7
:101C3C0083F841207B68012283F842207B680122D3
:101C4C0083F843207B68012283F844207B680122BF
:101C5C0083F845207B68012283F83D200023184639
:101C6C000837BD4680BD000080B485B000AF7860F9
:101C7C007B6893F83D30DBB2012B01D0012335E0BA
:101C8C007B68022283F83D207B681B68DA687B68DE
:101C9C001B6842F00102DA607B681B68164A9342AB
:101CAC0009D07B681B68B3F1804F04D07B681B683C
:101CBC00124A934211D17B681B689B6803F007039F
:101CCC00FB60FB68062B10D07B681B681A687B686E
:101CDC001B6842F001021A6007E07B681B681A68F7
:101CEC007B681B6842F001021A6000231846143707
:101CFC00BD4680BC704700BF002C01400004004072
:101D0C0080B582B000AF78607B681B681B6903F0FC
:101D1C000203022B22D17B681B68DB6803F00203F1
:101D2C00022B1BD17B681B686FF002021A617B6867
:101D3C0001221A777B681B689B6903F00303002B55
:101D4C0003D0786800F0B4F905E0786800F0A7F9E2
:101D5C00786800F0B6F97B6800221A777B681B68FC
:101D6C001B6903F00403042B22D17B681B68DB681E
:101D7C0003F00403042B1BD17B681B686FF0040277
:101D8C001A617B6802221A777B681B689B6903F4D3
:101D9C004073002B03D0786800F08AF905E078686E
:101DAC0000F07DF9786800F08CF97B6800221A77D6
:101DBC007B681B681B6903F00803082B22D17B6826
:101DCC001B68DB6803F00803082B1BD17B681B68BE
:101DDC006FF008021A617B6804221A777B681B6813
:101DEC00DB6903F00303002B03D0786800F060F983
:101DFC0005E0786800F053F9786800F062F97B68C8
:101E0C0000221A777B681B681B6903F01003102BE8
:101E1C0022D17B681B68DB6803F01003102B1BD1ED
:101E2C007B681B686FF010021A617B6808221A77B6
:101E3C007B681B68DB6903F44073002B03D0786864
:101E4C0000F036F905E0786800F029F9786800F0C0
:101E5C0038F97B6800221A777B681B681B6903F0D2
:101E6C000103012B0ED17B681B68DB6803F00103B7
:101E7C00012B07D17B681B686FF001021A6178682F
:101E8C00FEF768FE7B681B681B6903F08003802BE0
:101E9C000ED17B681B68DB6803F08003802B07D1B5
:101EAC007B681B686FF080021A61786800F06BFA2F
:101EBC007B681B681B6903F04003402B0ED17B68C9
:101ECC001B68DB6803F04003402B07D17B681B6861
:101EDC006FF040021A61786800F0FCF87B681B68B0
:101EEC001B6903F02003202B0ED17B681B68DB6879
:101EFC0003F02003202B07D17B681B686FF02002B6
:101F0C001A61786800F036FA00BF0837BD4680BD0C
:101F1C0080B584B000AF786039600023FB737B68B8
:101F2C0093F83C30012B01D10223B4E07B680122F1
:101F3C0083F83C207B68022283F83D207B681B6879
:101F4C009B68BB60BB6823F07703BB60BB6823F462
:101F5C007F43BB607B681B68BA689A603B681B68F0
:101F6C00B3F5005F3ED0B3F5005F00F28780B3F5A8
:101F7C00805F00F08680B3F5805F7FD8702B1AD01D
:101F8C00702B7BD8602B50D0602B77D8502B3CD04B
:101F9C00502B73D8402B58D0402B6FD8302B64D09B
:101FAC00302B6BD8202B60D0202B67D8002B5CD02B
:101FBC00102B5AD062E07B6818683B6899683B68C4
:101FCC005A683B68DB6800F05EF97B681B689B68AD
:101FDC00BB60BB6843F07703BB607B681B68BA6867
:101FEC009A604FE07B6818683B6899683B685A6850
:101FFC003B68DB6800F047F97B681B689A687B6874
:10200C001B6842F480429A603CE07B6818683B682D
:10201C0059683B68DB681A4600F0BEF87B681B68A1
:10202C005021184600F015F92CE07B6818683B68C5
:10203C0059683B68DB681A4600F0DCF87B681B6863
:10204C006021184600F005F91CE07B6818683B68B5
:10205C0059683B68DB681A4600F09EF87B681B6881
:10206C004021184600F0F5F80CE07B681A683B68D4
:10207C001B681946104600F0ECF803E00123FB73D3
:10208C0000E000BF7B68012283F83D207B680022C2
:10209C0083F83C20FB7B18461037BD4680BD80B4CE
:1020AC0083B000AF786000BF0C37BD4680BC704772
:1020BC0080B483B000AF786000BF0C37BD4680BCE5
:1020CC00704780B483B000AF786000BF0C37BD465A
:1020DC0080BC704780B483B000AF786000BF0C3711
:1020EC00BD4680BC7047000080B485B000AF7860FE
:1020FC0039607B681B68FB607B68254A934207D07C
:10210C007B68B3F1804F03D07B68224A934208D19D
:10211C00FB6823F07003FB603B685B68FA68134351
:10212C00FB607B681A4A934207D07B68B3F1804FFF
:10213C0003D07B68174A934208D1FB6823F44073A1
:10214C00FB603B68DB68FA681343FB60FB6823F0B9
:10215C0080023B685B691343FB607B68FA681A601A
:10216C003B689A687B68DA623B681A687B689A629B
:10217C007B68074A934203D13B681A697B681A63F0
:10218C007B6801225A6100BF1437BD4680BC704782
:10219C00002C01400004004080B487B000AFF86010
:1021AC00B9607A60FB681B6A7B61FB681B6A23F071
:1021BC000102FB681A62FB689B693B613B6923F077
:1021CC00F0033B617B681B013A6913433B617B69FC
:1021DC0023F00A037B617A69BB6813437B61FB685C
:1021EC003A699A61FB687A691A6200BF1C37BD466E
:1021FC0080BC704780B487B000AFF860B9607A607B
:10220C00FB681B6A7B61FB681B6A23F01002FB688E
:10221C001A62FB689B693B613B6923F470433B6129
:10222C007B681B033A6913433B617B6923F0A00372
:10223C007B61BB681B017A6913437B61FB683A695C
:10224C009A61FB687A691A6200BF1C37BD4680BC74
:10225C00704780B485B000AF786039607B689B684C
:10226C00FB60FB6823F07003FB603A68FB68134368
:10227C0043F00703FB607B68FA689A6000BF143771
:10228C00BD4680BC704780B487B000AFF860B960C1
:10229C007A603B60FB689B687B617B6923F47F43BE
:1022AC007B613B681A027B681A43BB6813437A69EB
:1022BC0013437B61FB687A699A6000BF1C37BD468B
:1022CC0080BC704780B485B000AF786039607B68A3
:1022DC0093F83C30012B01D1022341E07B680122B1
:1022EC0083F83C207B68022283F83D207B681B68C6
:1022FC005B68FB607B681B689B68BB60FB6823F0BA
:10230C007003FB603B681B68FA681343FB607B68D7
:10231C001B68FA685A607B681B68144A934209D0A0
:10232C007B681B68B3F1804F04D07B681B68104A34
:10233C0093420CD1BB6823F08003BB603B685B68A5
:10234C00BA681343BB607B681B68BA689A607B6889
:10235C00012283F83D207B68002283F83C20002377
:10236C0018461437BD4680BC704700BF002C014096
:10237C000004004080B483B000AF786000BF0C371D
:10238C00BD4680BC704780B483B000AF786000BF9E
:10239C000C37BD4680BC704770B500260C4D0D4CFB
:1023AC00641BA410A64209D100F022F800260A4DA5
:1023BC000A4C641BA410A64205D170BD55F8043B11
:1023CC0098470136EEE755F8043B98470136F2E79B
:1023DC004C2400084C2400084C240008502400080D
:1023EC0003460244934200D1704703F8011BF9E7FE
:1023FC00F8B500BFF8BC08BC9E467047F8B500BFE6
:08240C00F8BC08BC9E467047B5
:10241400C0F9A4B0999282F880900000183C7EFF25
:10242400181818180000000000000000010203043E
:102434000607080902030405060708090A0B0C0D20
:082444000E0F10100102000050
:04244C003101000852
:042450000D01000872
:10245400040000000100000002000000030000006E
:10246400040000000F000000090000003400000018
:1024740008000000070000000024F4001000000021
:042484000100000053
:0400000508000D9949
:00000001FF
